{
  "contractName": "Voting",
  "abi": [
    {
      "anonymous": false,
      "inputs": [
        {
          "indexed": true,
          "internalType": "address",
          "name": "previousOwner",
          "type": "address"
        },
        {
          "indexed": true,
          "internalType": "address",
          "name": "newOwner",
          "type": "address"
        }
      ],
      "name": "OwnershipTransferred",
      "type": "event"
    },
    {
      "anonymous": false,
      "inputs": [
        {
          "indexed": false,
          "internalType": "uint256",
          "name": "proposalId",
          "type": "uint256"
        }
      ],
      "name": "ProposalRegistered",
      "type": "event"
    },
    {
      "anonymous": false,
      "inputs": [
        {
          "indexed": false,
          "internalType": "address",
          "name": "voter",
          "type": "address"
        },
        {
          "indexed": false,
          "internalType": "uint256",
          "name": "proposalId",
          "type": "uint256"
        }
      ],
      "name": "Voted",
      "type": "event"
    },
    {
      "anonymous": false,
      "inputs": [
        {
          "indexed": false,
          "internalType": "address",
          "name": "voterAddress",
          "type": "address"
        }
      ],
      "name": "VoterRegistered",
      "type": "event"
    },
    {
      "anonymous": false,
      "inputs": [
        {
          "indexed": false,
          "internalType": "enum Voting.WorkflowStatus",
          "name": "previousStatus",
          "type": "uint8"
        },
        {
          "indexed": false,
          "internalType": "enum Voting.WorkflowStatus",
          "name": "newStatus",
          "type": "uint8"
        }
      ],
      "name": "WorkflowStatusChange",
      "type": "event"
    },
    {
      "inputs": [],
      "name": "owner",
      "outputs": [
        {
          "internalType": "address",
          "name": "",
          "type": "address"
        }
      ],
      "stateMutability": "view",
      "type": "function",
      "constant": true
    },
    {
      "inputs": [],
      "name": "renounceOwnership",
      "outputs": [],
      "stateMutability": "nonpayable",
      "type": "function"
    },
    {
      "inputs": [
        {
          "internalType": "address",
          "name": "newOwner",
          "type": "address"
        }
      ],
      "name": "transferOwnership",
      "outputs": [],
      "stateMutability": "nonpayable",
      "type": "function"
    },
    {
      "inputs": [],
      "name": "workflowStatus",
      "outputs": [
        {
          "internalType": "enum Voting.WorkflowStatus",
          "name": "",
          "type": "uint8"
        }
      ],
      "stateMutability": "view",
      "type": "function",
      "constant": true
    },
    {
      "inputs": [
        {
          "internalType": "address",
          "name": "_addr",
          "type": "address"
        }
      ],
      "name": "getVoter",
      "outputs": [
        {
          "components": [
            {
              "internalType": "bool",
              "name": "isRegistered",
              "type": "bool"
            },
            {
              "internalType": "bool",
              "name": "hasVoted",
              "type": "bool"
            },
            {
              "internalType": "uint256",
              "name": "votedProposalId",
              "type": "uint256"
            }
          ],
          "internalType": "struct Voting.Voter",
          "name": "",
          "type": "tuple"
        }
      ],
      "stateMutability": "view",
      "type": "function",
      "constant": true
    },
    {
      "inputs": [
        {
          "internalType": "uint256",
          "name": "_id",
          "type": "uint256"
        }
      ],
      "name": "getOneProposal",
      "outputs": [
        {
          "components": [
            {
              "internalType": "string",
              "name": "description",
              "type": "string"
            },
            {
              "internalType": "uint256",
              "name": "voteCount",
              "type": "uint256"
            }
          ],
          "internalType": "struct Voting.Proposal",
          "name": "",
          "type": "tuple"
        }
      ],
      "stateMutability": "view",
      "type": "function",
      "constant": true
    },
    {
      "inputs": [],
      "name": "getAllProposals",
      "outputs": [
        {
          "components": [
            {
              "internalType": "string",
              "name": "description",
              "type": "string"
            },
            {
              "internalType": "uint256",
              "name": "voteCount",
              "type": "uint256"
            }
          ],
          "internalType": "struct Voting.Proposal[]",
          "name": "",
          "type": "tuple[]"
        }
      ],
      "stateMutability": "view",
      "type": "function",
      "constant": true
    },
    {
      "inputs": [],
      "name": "getWinningProposalsID",
      "outputs": [
        {
          "internalType": "uint256[]",
          "name": "",
          "type": "uint256[]"
        }
      ],
      "stateMutability": "view",
      "type": "function",
      "constant": true
    },
    {
      "inputs": [
        {
          "internalType": "address",
          "name": "_addr",
          "type": "address"
        }
      ],
      "name": "addVoter",
      "outputs": [],
      "stateMutability": "nonpayable",
      "type": "function"
    },
    {
      "inputs": [
        {
          "internalType": "address",
          "name": "_addr",
          "type": "address"
        }
      ],
      "name": "deleteVoter",
      "outputs": [],
      "stateMutability": "nonpayable",
      "type": "function"
    },
    {
      "inputs": [
        {
          "internalType": "string",
          "name": "_desc",
          "type": "string"
        }
      ],
      "name": "addProposal",
      "outputs": [],
      "stateMutability": "nonpayable",
      "type": "function"
    },
    {
      "inputs": [
        {
          "internalType": "uint256",
          "name": "_id",
          "type": "uint256"
        }
      ],
      "name": "setVote",
      "outputs": [],
      "stateMutability": "nonpayable",
      "type": "function"
    },
    {
      "inputs": [
        {
          "internalType": "uint256",
          "name": "_num",
          "type": "uint256"
        }
      ],
      "name": "setWorkflowStatus",
      "outputs": [],
      "stateMutability": "nonpayable",
      "type": "function"
    },
    {
      "inputs": [],
      "name": "nextWorkflowStatus",
      "outputs": [],
      "stateMutability": "nonpayable",
      "type": "function"
    },
    {
      "inputs": [],
      "name": "tallyVotesDraw",
      "outputs": [],
      "stateMutability": "nonpayable",
      "type": "function"
    },
    {
      "inputs": [],
      "name": "tallyDraw",
      "outputs": [],
      "stateMutability": "nonpayable",
      "type": "function"
    }
  ],
  "bytecode": "0x60806040523480156200001157600080fd5b5062000032620000266200003860201b60201c565b6200004060201b60201c565b62000104565b600033905090565b60008060009054906101000a900473ffffffffffffffffffffffffffffffffffffffff169050816000806101000a81548173ffffffffffffffffffffffffffffffffffffffff021916908373ffffffffffffffffffffffffffffffffffffffff1602179055508173ffffffffffffffffffffffffffffffffffffffff168173ffffffffffffffffffffffffffffffffffffffff167f8be0079c531659141344cd1fd0a4f28419497f9722a3daafe3b4186f6b6457e060405160405180910390a35050565b612f8080620001146000396000f3fe608060405234801561001057600080fd5b50600436106101005760003560e01c806388e1c73911610097578063cceb68f511610066578063cceb68f514610227578063d4f50f9814610245578063f2fde38b14610275578063f4ab9adf1461029157610100565b806388e1c7391461019f5780638da5cb5b146101bb578063a1edffa2146101d9578063a2788cce146101f757610100565b8063424f80db116100d3578063424f80db146101515780635774982f1461016d578063715018a61461018b578063754062841461019557610100565b806319a59b6414610105578063230796ae1461010f5780632fdae3c51461012b5780633beee92e14610147575b600080fd5b61010d6102ad565b005b61012960048036038101906101249190611c89565b610393565b005b61014560048036038101906101409190611dfc565b610765565b005b61014f6109a8565b005b61016b60048036038101906101669190611c89565b610cd6565b005b610175610e95565b6040516101829190611f03565b60405180910390f35b610193610f62565b005b61019d610f76565b005b6101b960048036038101906101b49190611f83565b6110aa565b005b6101c3611253565b6040516101d09190611fbf565b60405180910390f35b6101e161127c565b6040516101ee9190612051565b60405180910390f35b610211600480360381019061020c9190611c89565b61128f565b60405161021e9190612131565b60405180910390f35b61022f611486565b60405161023c9190612252565b60405180910390f35b61025f600480360381019061025a9190611f83565b611610565b60405161026c91906122d1565b60405180910390f35b61028f600480360381019061028a9190611f83565b611738565b005b6102ab60048036038101906102a69190611f83565b6117bb565b005b6102b5611964565b600460058111156102c9576102c8611fda565b5b600360009054906101000a900460ff1660058111156102eb576102ea611fda565b5b1461032b576040517f08c379a00000000000000000000000000000000000000000000000000000000081526004016103229061236f565b60405180910390fd5b6005600360006101000a81548160ff0219169083600581111561035157610350611fda565b5b02179055507f0a97a4ee45751e2abf3e4fc8946939630b11b371ea8ae39ccdc3056e98f5cc3f6004600560405161038992919061238f565b60405180910390a1565b600560003373ffffffffffffffffffffffffffffffffffffffff1673ffffffffffffffffffffffffffffffffffffffff16815260200190815260200160002060000160009054906101000a900460ff16610422576040517f08c379a000000000000000000000000000000000000000000000000000000000815260040161041990612404565b60405180910390fd5b6003600581111561043657610435611fda565b5b600360009054906101000a900460ff16600581111561045857610457611fda565b5b14610498576040517f08c379a000000000000000000000000000000000000000000000000000000000815260040161048f90612496565b60405180910390fd5b60011515600560003373ffffffffffffffffffffffffffffffffffffffff1673ffffffffffffffffffffffffffffffffffffffff16815260200190815260200160002060000160019054906101000a900460ff1615150361052e576040517f08c379a000000000000000000000000000000000000000000000000000000000815260040161052590612502565b60405180910390fd5b6004805490508110610575576040517f08c379a000000000000000000000000000000000000000000000000000000000815260040161056c9061256e565b60405180910390fd5b80600560003373ffffffffffffffffffffffffffffffffffffffff1673ffffffffffffffffffffffffffffffffffffffff168152602001908152602001600020600101819055506001600560003373ffffffffffffffffffffffffffffffffffffffff1673ffffffffffffffffffffffffffffffffffffffff16815260200190815260200160002060000160016101000a81548160ff0219169083151502179055506004818154811061062b5761062a61258e565b5b9060005260206000209060020201600101600081548092919061064d906125ec565b919050555060006001805490500361068d576001819080600181540180825580915050600190039060005260206000200160009091909190915055610729565b600460016000815481106106a4576106a361258e565b5b9060005260206000200154815481106106c0576106bf61258e565b5b906000526020600020906002020160010154600482815481106106e6576106e561258e565b5b90600052602060002090600202016001015411156107285760018190806001815401808255809150506001900390600052602060002001600090919091909150555b5b7f4d99b957a2bc29a30ebd96a7be8e68fe50a3c701db28a91436490b7d53870ca4338260405161075a929190612643565b60405180910390a150565b600560003373ffffffffffffffffffffffffffffffffffffffff1673ffffffffffffffffffffffffffffffffffffffff16815260200190815260200160002060000160009054906101000a900460ff166107f4576040517f08c379a00000000000000000000000000000000000000000000000000000000081526004016107eb90612404565b60405180910390fd5b6001600581111561080857610807611fda565b5b600360009054906101000a900460ff16600581111561082a57610829611fda565b5b1461086a576040517f08c379a0000000000000000000000000000000000000000000000000000000008152600401610861906126b8565b60405180910390fd5b604051602001610879906126fe565b60405160208183030381529060405280519060200120816040516020016108a09190612757565b60405160208183030381529060405280519060200120036108f6576040517f08c379a00000000000000000000000000000000000000000000000000000000081526004016108ed906127eb565b60405180910390fd5b6108fe611aae565b8181600001819052506004819080600181540180825580915050600190039060005260206000209060020201600090919091909150600082015181600001908051906020019061094f929190611ac8565b506020820151816001015550507f92e393e9b54e2f801d3ea4beb0c5e71a21cc34a5d34b77d0fb8a3aa1650dc18f600160048054905061098f919061280b565b60405161099c919061283f565b60405180910390a15050565b6109b0611964565b600460058111156109c4576109c3611fda565b5b600360009054906101000a900460ff1660058111156109e6576109e5611fda565b5b14610a26576040517f08c379a0000000000000000000000000000000000000000000000000000000008152600401610a1d9061236f565b60405180910390fd5b60646004805490501115610a6f576040517f08c379a0000000000000000000000000000000000000000000000000000000008152600401610a66906128cc565b60405180910390fd5b6000610a79611b4e565b600080600090505b600480549050811015610b7b578360048281548110610aa357610aa261258e565b5b90600052602060002090600202016001015403610ae65780838360058110610ace57610acd61258e565b5b6020020181815250508180610ae2906125ec565b9250505b8360048281548110610afb57610afa61258e565b5b9060005260206000209060020201600101541115610b6857610b1b611b4e565b92508083600060058110610b3257610b3161258e565b5b60200201818152505060048181548110610b4f57610b4e61258e565b5b9060005260206000209060020201600101549350600191505b8080610b73906125ec565b915050610a81565b5060005b81811015610c6a576001838260058110610b9c57610b9b61258e565b5b6020020151908060018154018082558091505060019003906000526020600020016000909190919091505560026004848360058110610bde57610bdd61258e565b5b602002015181548110610bf457610bf361258e565b5b906000526020600020906002020190806001815401808255809150506001900390600052602060002090600202016000909190919091506000820181600001908054610c3f9061291b565b610c4a929190611b70565b506001820154816001015550508080610c62906125ec565b915050610b7f565b506005600360006101000a81548160ff02191690836005811115610c9157610c90611fda565b5b02179055507f0a97a4ee45751e2abf3e4fc8946939630b11b371ea8ae39ccdc3056e98f5cc3f60046005604051610cc992919061238f565b60405180910390a1505050565b8060008103610d1a576040517f08c379a0000000000000000000000000000000000000000000000000000000008152600401610d11906129be565b60405180910390fd5b600181610d27919061280b565b6005811115610d3957610d38611fda565b5b6005811115610d4b57610d4a611fda565b5b600360009054906101000a900460ff166005811115610d6d57610d6c611fda565b5b14610dad576040517f08c379a0000000000000000000000000000000000000000000000000000000008152600401610da490612a2a565b60405180910390fd5b60058103610df0576040517f08c379a0000000000000000000000000000000000000000000000000000000008152600401610de790612a96565b60405180910390fd5b610df8611964565b6000600360009054906101000a900460ff169050826005811115610e1f57610e1e611fda565b5b600360006101000a81548160ff02191690836005811115610e4357610e42611fda565b5b02179055507f0a97a4ee45751e2abf3e4fc8946939630b11b371ea8ae39ccdc3056e98f5cc3f81600360009054906101000a900460ff16604051610e8892919061238f565b60405180910390a1505050565b6060600580811115610eaa57610ea9611fda565b5b600360009054906101000a900460ff166005811115610ecc57610ecb611fda565b5b14610f0c576040517f08c379a0000000000000000000000000000000000000000000000000000000008152600401610f0390612b28565b60405180910390fd5b6001805480602002602001604051908101604052809291908181526020018280548015610f5857602002820191906000526020600020905b815481526020019060010190808311610f44575b5050505050905090565b610f6a611964565b610f7460006119e2565b565b610f7e611964565b6004600360009054906101000a900460ff166005811115610fa257610fa1611fda565b5b03610fe2576040517f08c379a0000000000000000000000000000000000000000000000000000000008152600401610fd990612b94565b60405180910390fd5b6000600360009054906101000a900460ff1690506001600360009054906101000a900460ff16600581111561101a57611019611fda565b5b6110249190612bb4565b600581111561103657611035611fda565b5b600360006101000a81548160ff0219169083600581111561105a57611059611fda565b5b02179055507f0a97a4ee45751e2abf3e4fc8946939630b11b371ea8ae39ccdc3056e98f5cc3f81600360009054906101000a900460ff1660405161109f92919061238f565b60405180910390a150565b6110b2611964565b600060058111156110c6576110c5611fda565b5b600360009054906101000a900460ff1660058111156110e8576110e7611fda565b5b14611128576040517f08c379a000000000000000000000000000000000000000000000000000000000815260040161111f90612c7c565b60405180910390fd5b60011515600560008373ffffffffffffffffffffffffffffffffffffffff1673ffffffffffffffffffffffffffffffffffffffff16815260200190815260200160002060000160009054906101000a900460ff161515146111be576040517f08c379a00000000000000000000000000000000000000000000000000000000081526004016111b590612ce8565b60405180910390fd5b6000600560008373ffffffffffffffffffffffffffffffffffffffff1673ffffffffffffffffffffffffffffffffffffffff16815260200190815260200160002060000160006101000a81548160ff0219169083151502179055507fb6be2187d059cc2a55fe29e0e503b566e1e0f8c8780096e185429350acffd3dd816040516112489190611fbf565b60405180910390a150565b60008060009054906101000a900473ffffffffffffffffffffffffffffffffffffffff16905090565b600360009054906101000a900460ff1681565b611297611aae565b600560003373ffffffffffffffffffffffffffffffffffffffff1673ffffffffffffffffffffffffffffffffffffffff16815260200190815260200160002060000160009054906101000a900460ff16611326576040517f08c379a000000000000000000000000000000000000000000000000000000000815260040161131d90612404565b60405180910390fd5b60006004805490501161136e576040517f08c379a000000000000000000000000000000000000000000000000000000000815260040161136590612d54565b60405180910390fd5b8160048054905010156113b6576040517f08c379a00000000000000000000000000000000000000000000000000000000081526004016113ad90612dc0565b60405180910390fd5b600482815481106113ca576113c961258e565b5b90600052602060002090600202016040518060400160405290816000820180546113f39061291b565b80601f016020809104026020016040519081016040528092919081815260200182805461141f9061291b565b801561146c5780601f106114415761010080835404028352916020019161146c565b820191906000526020600020905b81548152906001019060200180831161144f57829003601f168201915b505050505081526020016001820154815250509050919050565b6060600560003373ffffffffffffffffffffffffffffffffffffffff1673ffffffffffffffffffffffffffffffffffffffff16815260200190815260200160002060000160009054906101000a900460ff16611517576040517f08c379a000000000000000000000000000000000000000000000000000000000815260040161150e90612404565b60405180910390fd5b6004805480602002602001604051908101604052809291908181526020016000905b82821015611607578382906000526020600020906002020160405180604001604052908160008201805461156c9061291b565b80601f01602080910402602001604051908101604052809291908181526020018280546115989061291b565b80156115e55780601f106115ba576101008083540402835291602001916115e5565b820191906000526020600020905b8154815290600101906020018083116115c857829003601f168201915b5050505050815260200160018201548152505081526020019060010190611539565b50505050905090565b611618611bfd565b600560003373ffffffffffffffffffffffffffffffffffffffff1673ffffffffffffffffffffffffffffffffffffffff16815260200190815260200160002060000160009054906101000a900460ff166116a7576040517f08c379a000000000000000000000000000000000000000000000000000000000815260040161169e90612404565b60405180910390fd5b600560008373ffffffffffffffffffffffffffffffffffffffff1673ffffffffffffffffffffffffffffffffffffffff1681526020019081526020016000206040518060600160405290816000820160009054906101000a900460ff161515151581526020016000820160019054906101000a900460ff161515151581526020016001820154815250509050919050565b611740611964565b600073ffffffffffffffffffffffffffffffffffffffff168173ffffffffffffffffffffffffffffffffffffffff16036117af576040517f08c379a00000000000000000000000000000000000000000000000000000000081526004016117a690612e52565b60405180910390fd5b6117b8816119e2565b50565b6117c3611964565b600060058111156117d7576117d6611fda565b5b600360009054906101000a900460ff1660058111156117f9576117f8611fda565b5b14611839576040517f08c379a000000000000000000000000000000000000000000000000000000000815260040161183090612c7c565b60405180910390fd5b60011515600560008373ffffffffffffffffffffffffffffffffffffffff1673ffffffffffffffffffffffffffffffffffffffff16815260200190815260200160002060000160009054906101000a900460ff161515036118cf576040517f08c379a00000000000000000000000000000000000000000000000000000000081526004016118c690612ebe565b60405180910390fd5b6001600560008373ffffffffffffffffffffffffffffffffffffffff1673ffffffffffffffffffffffffffffffffffffffff16815260200190815260200160002060000160006101000a81548160ff0219169083151502179055507fb6be2187d059cc2a55fe29e0e503b566e1e0f8c8780096e185429350acffd3dd816040516119599190611fbf565b60405180910390a150565b61196c611aa6565b73ffffffffffffffffffffffffffffffffffffffff1661198a611253565b73ffffffffffffffffffffffffffffffffffffffff16146119e0576040517f08c379a00000000000000000000000000000000000000000000000000000000081526004016119d790612f2a565b60405180910390fd5b565b60008060009054906101000a900473ffffffffffffffffffffffffffffffffffffffff169050816000806101000a81548173ffffffffffffffffffffffffffffffffffffffff021916908373ffffffffffffffffffffffffffffffffffffffff1602179055508173ffffffffffffffffffffffffffffffffffffffff168173ffffffffffffffffffffffffffffffffffffffff167f8be0079c531659141344cd1fd0a4f28419497f9722a3daafe3b4186f6b6457e060405160405180910390a35050565b600033905090565b604051806040016040528060608152602001600081525090565b828054611ad49061291b565b90600052602060002090601f016020900481019282611af65760008555611b3d565b82601f10611b0f57805160ff1916838001178555611b3d565b82800160010185558215611b3d579182015b82811115611b3c578251825591602001919060010190611b21565b5b509050611b4a9190611c22565b5090565b6040518060a00160405280600590602082028036833780820191505090505090565b828054611b7c9061291b565b90600052602060002090601f016020900481019282611b9e5760008555611bec565b82601f10611baf5780548555611bec565b82800160010185558215611bec57600052602060002091601f016020900482015b82811115611beb578254825591600101919060010190611bd0565b5b509050611bf99190611c22565b5090565b6040518060600160405280600015158152602001600015158152602001600081525090565b5b80821115611c3b576000816000905550600101611c23565b5090565b6000604051905090565b600080fd5b600080fd5b6000819050919050565b611c6681611c53565b8114611c7157600080fd5b50565b600081359050611c8381611c5d565b92915050565b600060208284031215611c9f57611c9e611c49565b5b6000611cad84828501611c74565b91505092915050565b600080fd5b600080fd5b6000601f19601f8301169050919050565b7f4e487b7100000000000000000000000000000000000000000000000000000000600052604160045260246000fd5b611d0982611cc0565b810181811067ffffffffffffffff82111715611d2857611d27611cd1565b5b80604052505050565b6000611d3b611c3f565b9050611d478282611d00565b919050565b600067ffffffffffffffff821115611d6757611d66611cd1565b5b611d7082611cc0565b9050602081019050919050565b82818337600083830152505050565b6000611d9f611d9a84611d4c565b611d31565b905082815260208101848484011115611dbb57611dba611cbb565b5b611dc6848285611d7d565b509392505050565b600082601f830112611de357611de2611cb6565b5b8135611df3848260208601611d8c565b91505092915050565b600060208284031215611e1257611e11611c49565b5b600082013567ffffffffffffffff811115611e3057611e2f611c4e565b5b611e3c84828501611dce565b91505092915050565b600081519050919050565b600082825260208201905092915050565b6000819050602082019050919050565b611e7a81611c53565b82525050565b6000611e8c8383611e71565b60208301905092915050565b6000602082019050919050565b6000611eb082611e45565b611eba8185611e50565b9350611ec583611e61565b8060005b83811015611ef6578151611edd8882611e80565b9750611ee883611e98565b925050600181019050611ec9565b5085935050505092915050565b60006020820190508181036000830152611f1d8184611ea5565b905092915050565b600073ffffffffffffffffffffffffffffffffffffffff82169050919050565b6000611f5082611f25565b9050919050565b611f6081611f45565b8114611f6b57600080fd5b50565b600081359050611f7d81611f57565b92915050565b600060208284031215611f9957611f98611c49565b5b6000611fa784828501611f6e565b91505092915050565b611fb981611f45565b82525050565b6000602082019050611fd46000830184611fb0565b92915050565b7f4e487b7100000000000000000000000000000000000000000000000000000000600052602160045260246000fd5b6006811061201a57612019611fda565b5b50565b600081905061202b82612009565b919050565b600061203b8261201d565b9050919050565b61204b81612030565b82525050565b60006020820190506120666000830184612042565b92915050565b600081519050919050565b600082825260208201905092915050565b60005b838110156120a657808201518184015260208101905061208b565b838111156120b5576000848401525b50505050565b60006120c68261206c565b6120d08185612077565b93506120e0818560208601612088565b6120e981611cc0565b840191505092915050565b6000604083016000830151848203600086015261211182826120bb565b91505060208301516121266020860182611e71565b508091505092915050565b6000602082019050818103600083015261214b81846120f4565b905092915050565b600081519050919050565b600082825260208201905092915050565b6000819050602082019050919050565b6000604083016000830151848203600086015261219c82826120bb565b91505060208301516121b16020860182611e71565b508091505092915050565b60006121c8838361217f565b905092915050565b6000602082019050919050565b60006121e882612153565b6121f2818561215e565b9350836020820285016122048561216f565b8060005b85811015612240578484038952815161222185826121bc565b945061222c836121d0565b925060208a01995050600181019050612208565b50829750879550505050505092915050565b6000602082019050818103600083015261226c81846121dd565b905092915050565b60008115159050919050565b61228981612274565b82525050565b6060820160008201516122a56000850182612280565b5060208201516122b86020850182612280565b5060408201516122cb6040850182611e71565b50505050565b60006060820190506122e6600083018461228f565b92915050565b600082825260208201905092915050565b7f43757272656e7420737461747573206973206e6f7420766f74696e672073657360008201527f73696f6e20656e64656400000000000000000000000000000000000000000000602082015250565b6000612359602a836122ec565b9150612364826122fd565b604082019050919050565b600060208201905081810360008301526123888161234c565b9050919050565b60006040820190506123a46000830185612042565b6123b16020830184612042565b9392505050565b7f596f75277265206e6f74206120766f7465720000000000000000000000000000600082015250565b60006123ee6012836122ec565b91506123f9826123b8565b602082019050919050565b6000602082019050818103600083015261241d816123e1565b9050919050565b7f566f74696e672073657373696f6e20686176656e74207374617274656420796560008201527f7400000000000000000000000000000000000000000000000000000000000000602082015250565b60006124806021836122ec565b915061248b82612424565b604082019050919050565b600060208201905081810360008301526124af81612473565b9050919050565b7f596f75206861766520616c726561647920766f74656400000000000000000000600082015250565b60006124ec6016836122ec565b91506124f7826124b6565b602082019050919050565b6000602082019050818103600083015261251b816124df565b9050919050565b7f50726f706f73616c206e6f7420666f756e640000000000000000000000000000600082015250565b60006125586012836122ec565b915061256382612522565b602082019050919050565b600060208201905081810360008301526125878161254b565b9050919050565b7f4e487b7100000000000000000000000000000000000000000000000000000000600052603260045260246000fd5b7f4e487b7100000000000000000000000000000000000000000000000000000000600052601160045260246000fd5b60006125f782611c53565b91507fffffffffffffffffffffffffffffffffffffffffffffffffffffffffffffffff8203612629576126286125bd565b5b600182019050919050565b61263d81611c53565b82525050565b60006040820190506126586000830185611fb0565b6126656020830184612634565b9392505050565b7f50726f706f73616c7320617265206e6f7420616c6c6f77656420796574000000600082015250565b60006126a2601d836122ec565b91506126ad8261266c565b602082019050919050565b600060208201905081810360008301526126d181612695565b9050919050565b50565b60006126e86000836122ec565b91506126f3826126d8565b600082019050919050565b60006020820190508181036000830152612717816126db565b9050919050565b60006127298261206c565b61273381856122ec565b9350612743818560208601612088565b61274c81611cc0565b840191505092915050565b60006020820190508181036000830152612771818461271e565b905092915050565b7f566f7573206e6520706f7576657a20706173206e65207269656e2070726f706f60008201527f7365720000000000000000000000000000000000000000000000000000000000602082015250565b60006127d56023836122ec565b91506127e082612779565b604082019050919050565b60006020820190508181036000830152612804816127c8565b9050919050565b600061281682611c53565b915061282183611c53565b925082821015612834576128336125bd565b5b828203905092915050565b60006020820190506128546000830184612634565b92915050565b7f546f6f206d616e792070726f706f73616c732063616e27742074616c6c79566f60008201527f746520666f722061206661697220707269636500000000000000000000000000602082015250565b60006128b66033836122ec565b91506128c18261285a565b604082019050919050565b600060208201905081810360008301526128e5816128a9565b9050919050565b7f4e487b7100000000000000000000000000000000000000000000000000000000600052602260045260246000fd5b6000600282049050600182168061293357607f821691505b602082108103612946576129456128ec565b5b50919050565b7f4e6f7420706f737369626c6520746f20676574206261636b20746f207468652060008201527f6f726967696e616c207374617465000000000000000000000000000000000000602082015250565b60006129a8602e836122ec565b91506129b38261294c565b604082019050919050565b600060208201905081810360008301526129d78161299b565b9050919050565b7f62616420776f726b666c6f777374617475730000000000000000000000000000600082015250565b6000612a146012836122ec565b9150612a1f826129de565b602082019050919050565b60006020820190508181036000830152612a4381612a07565b9050919050565b7f696c2066617574206c616e6365722074616c6c7920766f746573000000000000600082015250565b6000612a80601a836122ec565b9150612a8b82612a4a565b602082019050919050565b60006020820190508181036000830152612aaf81612a73565b9050919050565b7f43757272656e7420766f74696e672073657373696f6e20686173206e6f74206560008201527f6e64656420796574000000000000000000000000000000000000000000000000602082015250565b6000612b126028836122ec565b9150612b1d82612ab6565b604082019050919050565b60006020820190508181036000830152612b4181612b05565b9050919050565b7f696c2066617574206c616e6365722074616c6c79766f74657300000000000000600082015250565b6000612b7e6019836122ec565b9150612b8982612b48565b602082019050919050565b60006020820190508181036000830152612bad81612b71565b9050919050565b6000612bbf82611c53565b9150612bca83611c53565b9250827fffffffffffffffffffffffffffffffffffffffffffffffffffffffffffffffff03821115612bff57612bfe6125bd565b5b828201905092915050565b7f566f7465727320726567697374726174696f6e206973206e6f74206f70656e2060008201527f7965740000000000000000000000000000000000000000000000000000000000602082015250565b6000612c666023836122ec565b9150612c7182612c0a565b604082019050919050565b60006020820190508181036000830152612c9581612c59565b9050919050565b7f4e6f7420726567697374657265642e0000000000000000000000000000000000600082015250565b6000612cd2600f836122ec565b9150612cdd82612c9c565b602082019050919050565b60006020820190508181036000830152612d0181612cc5565b9050919050565b7f70726f706f73616c73417272617920697320656d707479000000000000000000600082015250565b6000612d3e6017836122ec565b9150612d4982612d08565b602082019050919050565b60006020820190508181036000830152612d6d81612d31565b9050919050565b7f50726f706f73616c204944206973206f7574206f6620696e6465780000000000600082015250565b6000612daa601b836122ec565b9150612db582612d74565b602082019050919050565b60006020820190508181036000830152612dd981612d9d565b9050919050565b7f4f776e61626c653a206e6577206f776e657220697320746865207a65726f206160008201527f6464726573730000000000000000000000000000000000000000000000000000602082015250565b6000612e3c6026836122ec565b9150612e4782612de0565b604082019050919050565b60006020820190508181036000830152612e6b81612e2f565b9050919050565b7f416c726561647920726567697374657265640000000000000000000000000000600082015250565b6000612ea86012836122ec565b9150612eb382612e72565b602082019050919050565b60006020820190508181036000830152612ed781612e9b565b9050919050565b7f4f776e61626c653a2063616c6c6572206973206e6f7420746865206f776e6572600082015250565b6000612f146020836122ec565b9150612f1f82612ede565b602082019050919050565b60006020820190508181036000830152612f4381612f07565b905091905056fea26469706673582212200abb7b090348fd562705adb818fa79fe4571f128acfa74fcb46ec77d57485c4e64736f6c634300080e0033",
  "immutableReferences": {},
  "source": "// SPDX-License-Identifier: MIT\n\npragma solidity 0.8.14;\n\nimport \"../node_modules/@openzeppelin/contracts/access/Ownable.sol\";\n\ncontract Voting is Ownable {\n\n    uint[] winningProposalsID;\n    Proposal[] winningProposals;\n    \n    struct Voter {\n        bool isRegistered;\n        bool hasVoted;\n        uint votedProposalId;\n    }\n\n    struct Proposal {\n        string description;\n        uint voteCount;\n    }\n\n    enum  WorkflowStatus {\n        RegisteringVoters,\n        ProposalsRegistrationStarted,\n        ProposalsRegistrationEnded,\n        VotingSessionStarted,\n        VotingSessionEnded,\n        VotesTallied\n    }\n\n    WorkflowStatus public workflowStatus;\n    Proposal[] proposalsArray;\n    mapping (address => Voter) voters;\n\n\n    event VoterRegistered(address voterAddress); \n    event WorkflowStatusChange(WorkflowStatus previousStatus, WorkflowStatus newStatus);\n    event ProposalRegistered(uint proposalId);\n    event Voted (address voter, uint proposalId);\n\n    modifier onlyVoters() {\n        require(voters[msg.sender].isRegistered, \"You're not a voter\");\n        _;\n    }\n    \n    // on peut faire un modifier pour les tats\n\n    // ::::::::::::: GETTERS ::::::::::::: //\n\n    /**\n     * @notice Getter on the status of voter for a public address\n     * @param _addr address of the voter to look for\n     */ \n    function getVoter(address _addr) external onlyVoters view returns (Voter memory) {\n        return voters[_addr];\n    }\n    /**\n     * @notice Getter of a specific proposal\n     * @dev two requires added to avoid Panic: Index out of bounds issues when calling the fucntion while no proposal has been pushed\n     * @param _id id of the proposal to retreive\n     * @return Proposal the requested proposal\n     */  \n    function getOneProposal(uint _id) external onlyVoters view returns (Proposal memory) {\n        require(proposalsArray.length > 0, \"proposalsArray is empty\");\n        require(proposalsArray.length >= _id, \"Proposal ID is out of index\");\n        return proposalsArray[_id];\n    }\n    /**\n     * @notice Getter of all the proposals\n     * @return Proposal the proposal array\n     */ \n    //this getters have been added in order to perform some specific assertion style testing or \n    function getAllProposals() external onlyVoters view returns (Proposal[] memory) {\n        return proposalsArray;\n    }\n    /**\n     * @notice Getter of the winning proposal's id \n     * @dev require added to make sure Winning proposal ID details will only be available once the vote is tallied\n     * @return uint winningProposalsID array\n     */ \n    function getWinningProposalsID() public view returns (uint[] memory) {\n        require(workflowStatus == WorkflowStatus.VotesTallied, \"Current voting session has not ended yet\");\n        return winningProposalsID;\n    }\n\n \n    // ::::::::::::: REGISTRATION ::::::::::::: // \n    /**\n     * @notice function allowing to add voter is only callable by owner of the contract\n     * @param _addr address of the voter\n     */\n\n    function addVoter(address _addr) external onlyOwner {\n        require(workflowStatus == WorkflowStatus.RegisteringVoters, 'Voters registration is not open yet');\n        require(voters[_addr].isRegistered != true, 'Already registered');\n    \n        voters[_addr].isRegistered = true;\n        emit VoterRegistered(_addr);\n    }\n \n     /**\n     * @notice function allowing to delete voter is only callable by owner of the contract\n     * @param _addr address of the voter\n     */   \n    function deleteVoter(address _addr) external onlyOwner {\n        require(workflowStatus == WorkflowStatus.RegisteringVoters, 'Voters registration is not open yet');\n        require(voters[_addr].isRegistered == true, 'Not registered.');\n        voters[_addr].isRegistered = false;\n        emit VoterRegistered(_addr);\n    }\n\n    // ::::::::::::: PROPOSAL ::::::::::::: // \n     /**\n     * @notice function allowing to push a proposal is only callable by registered voters\n     * @param _desc String describing the proposal\n     */   \n    function addProposal(string memory _desc) external onlyVoters {\n        require(workflowStatus == WorkflowStatus.ProposalsRegistrationStarted, 'Proposals are not allowed yet');\n        require(keccak256(abi.encode(_desc)) != keccak256(abi.encode(\"\")), 'Vous ne pouvez pas ne rien proposer'); // facultatif\n        // voir que desc est different des autres\n\n        Proposal memory proposal;\n        proposal.description = _desc;\n        proposalsArray.push(proposal);\n        emit ProposalRegistered(proposalsArray.length-1);\n    }\n\n    // ::::::::::::: VOTE ::::::::::::: //\n     /**\n     * @notice function allowing to push a proposal is only callable by registered voters\n     * @param _id id of the proposal within the proposal array\n     */ \n    function setVote( uint _id) external onlyVoters {\n        require(workflowStatus == WorkflowStatus.VotingSessionStarted, 'Voting session havent started yet');\n        require(voters[msg.sender].hasVoted != true, 'You have already voted');\n        require(_id < proposalsArray.length, 'Proposal not found'); // pas oblig, et pas besoin du >0 car uint\n\n        voters[msg.sender].votedProposalId = _id;\n        voters[msg.sender].hasVoted = true;\n        proposalsArray[_id].voteCount++;\n\n        /// @dev if statement added to avoid security break with a for loop within the tallyVote function\n        if(winningProposalsID.length == 0){\n            winningProposalsID.push(_id);\n        }\n        else {\n            if (proposalsArray[_id].voteCount > proposalsArray[winningProposalsID[0]].voteCount) {\n                winningProposalsID.push(_id);\n            }\n        }\n\n        emit Voted(msg.sender, _id);\n    }\n\n    // ::::::::::::: STATE ::::::::::::: //\n\n    modifier checkWorkflowStatus(uint  _num) {\n        require (_num != 0, \"Not possible to get back to the original state\");\n        require (workflowStatus==WorkflowStatus(uint(_num)-1), \"bad workflowstatus\");\n        require (_num != 5, \"il faut lancer tally votes\");\n        _;\n      }\n\n    /**\n     * @notice function allowing to update the workflow status\n     * @param _num workflow tatus ID to set\n     */    \n    function setWorkflowStatus(uint _num) external checkWorkflowStatus(_num) onlyOwner {\n        WorkflowStatus old = workflowStatus;\n        workflowStatus = WorkflowStatus(_num);\n        emit WorkflowStatusChange(old, workflowStatus);\n       } \n    \n    //ou \n    /**\n     * @notice function allowing to update the workflow status automatically setting the next workflow status\n     */  \n    function nextWorkflowStatus() external onlyOwner{\n        require (uint(workflowStatus)!=4, \"il faut lancer tallyvotes\");\n        WorkflowStatus old = workflowStatus;\n        workflowStatus= WorkflowStatus(uint (workflowStatus) + 1);\n        emit WorkflowStatusChange(old, workflowStatus);\n    }\n        \n    /**\n     * @notice function allowing to tallyVotes and managing draw up to 5 max\n     * @dev modification done by adding an additional require to avoid a DoS Gas limit attack\n     */  \n    function tallyVotesDraw() external onlyOwner {\n       require(workflowStatus == WorkflowStatus.VotingSessionEnded, \"Current status is not voting session ended\");\n       require(proposalsArray.length <= 100, \"Too many proposals can't tallyVote for a fair price\");\n        uint highestCount;\n        uint[5]memory winners; // egalite entre 5 personnes max\n        uint nbWinners;\n        for (uint i = 0; i < proposalsArray.length; i++) {\n            if (proposalsArray[i].voteCount == highestCount) {\n                winners[nbWinners]=i;\n                nbWinners++;\n            }\n            if (proposalsArray[i].voteCount > highestCount) {\n                delete winners;\n                winners[0]= i;\n                highestCount = proposalsArray[i].voteCount;\n                nbWinners=1;\n            }\n        }\n        for(uint j=0;j<nbWinners;j++){\n            winningProposalsID.push(winners[j]);\n            winningProposals.push(proposalsArray[winners[j]]);\n        }\n        workflowStatus = WorkflowStatus.VotesTallied;\n        emit WorkflowStatusChange(WorkflowStatus.VotingSessionEnded, WorkflowStatus.VotesTallied);\n    }\n\n\n// ou\n    /**\n     * @notice function allowing to tallyVotes used in our test and called from the dapp\n     * @dev modification done by canceling the for loops to avoid a DoS Gas limit attack\n     */  \n    function tallyDraw() external onlyOwner{\n       require(workflowStatus == WorkflowStatus.VotingSessionEnded, \"Current status is not voting session ended\");\n       /* uint highestCount;\n       \n        for (uint i = 0; i < proposalsArray.length; i++) {\n            if (proposalsArray[i].voteCount > highestCount) {\n                highestCount = proposalsArray[i].voteCount;\n            }\n        }\n        \n        for (uint j = 0; j < proposalsArray.length; j++) {\n            if (proposalsArray[j].voteCount == highestCount) {\n                winningProposalsID.push(j);\n            }\n        }\n        */\n\n        workflowStatus = WorkflowStatus.VotesTallied;\n        emit WorkflowStatusChange(WorkflowStatus.VotingSessionEnded, WorkflowStatus.VotesTallied);\n\n    }\n\n}\n",
  "sourcePath": "/Users/omarelhachimi/WebstormProjects/Developpeur-Ethereum-Template-2/6. Dapp/truffle/contracts/Voting.sol",
  "compiler": {
    "name": "solc",
    "version": "0.8.14+commit.80d49f37.Emscripten.clang"
  },
  "schemaVersion": "3.4.10",
  "updatedAt": "2022-11-22T17:19:59.672Z",
  "networkType": "ethereum",
  "devdoc": {
    "kind": "dev",
    "methods": {
      "addProposal(string)": {
        "params": {
          "_desc": "String describing the proposal"
        }
      },
      "addVoter(address)": {
        "params": {
          "_addr": "address of the voter"
        }
      },
      "deleteVoter(address)": {
        "params": {
          "_addr": "address of the voter"
        }
      },
      "getAllProposals()": {
        "returns": {
          "_0": "Proposal the proposal array"
        }
      },
      "getOneProposal(uint256)": {
        "details": "two requires added to avoid Panic: Index out of bounds issues when calling the fucntion while no proposal has been pushed",
        "params": {
          "_id": "id of the proposal to retreive"
        },
        "returns": {
          "_0": "Proposal the requested proposal"
        }
      },
      "getVoter(address)": {
        "params": {
          "_addr": "address of the voter to look for"
        }
      },
      "getWinningProposalsID()": {
        "details": "require added to make sure Winning proposal ID details will only be available once the vote is tallied",
        "returns": {
          "_0": "uint winningProposalsID array"
        }
      },
      "owner()": {
        "details": "Returns the address of the current owner."
      },
      "renounceOwnership()": {
        "details": "Leaves the contract without owner. It will not be possible to call `onlyOwner` functions anymore. Can only be called by the current owner. NOTE: Renouncing ownership will leave the contract without an owner, thereby removing any functionality that is only available to the owner."
      },
      "setVote(uint256)": {
        "params": {
          "_id": "id of the proposal within the proposal array"
        }
      },
      "setWorkflowStatus(uint256)": {
        "params": {
          "_num": "workflow tatus ID to set"
        }
      },
      "tallyDraw()": {
        "details": "modification done by canceling the for loops to avoid a DoS Gas limit attack"
      },
      "tallyVotesDraw()": {
        "details": "modification done by adding an additional require to avoid a DoS Gas limit attack"
      },
      "transferOwnership(address)": {
        "details": "Transfers ownership of the contract to a new account (`newOwner`). Can only be called by the current owner."
      }
    },
    "version": 1
  },
  "userdoc": {
    "kind": "user",
    "methods": {
      "addProposal(string)": {
        "notice": "function allowing to push a proposal is only callable by registered voters"
      },
      "addVoter(address)": {
        "notice": "function allowing to add voter is only callable by owner of the contract"
      },
      "deleteVoter(address)": {
        "notice": "function allowing to delete voter is only callable by owner of the contract"
      },
      "getAllProposals()": {
        "notice": "Getter of all the proposals"
      },
      "getOneProposal(uint256)": {
        "notice": "Getter of a specific proposal"
      },
      "getVoter(address)": {
        "notice": "Getter on the status of voter for a public address"
      },
      "getWinningProposalsID()": {
        "notice": "Getter of the winning proposal's id "
      },
      "nextWorkflowStatus()": {
        "notice": "function allowing to update the workflow status automatically setting the next workflow status"
      },
      "setVote(uint256)": {
        "notice": "function allowing to push a proposal is only callable by registered voters"
      },
      "setWorkflowStatus(uint256)": {
        "notice": "function allowing to update the workflow status"
      },
      "tallyDraw()": {
        "notice": "function allowing to tallyVotes used in our test and called from the dapp"
      },
      "tallyVotesDraw()": {
        "notice": "function allowing to tallyVotes and managing draw up to 5 max"
      }
    },
    "version": 1
  }
}